{
  "contractName": "ExampleCode",
  "abi": [
    {
      "constant": true,
      "inputs": [
        {
          "name": "",
          "type": "address"
        }
      ],
      "name": "expiry",
      "outputs": [
        {
          "name": "",
          "type": "uint256"
        }
      ],
      "payable": false,
      "stateMutability": "view",
      "type": "function"
    },
    {
      "constant": true,
      "inputs": [
        {
          "name": "",
          "type": "address"
        }
      ],
      "name": "balances",
      "outputs": [
        {
          "name": "",
          "type": "uint256"
        }
      ],
      "payable": false,
      "stateMutability": "view",
      "type": "function"
    },
    {
      "constant": true,
      "inputs": [],
      "name": "myLighthouse",
      "outputs": [
        {
          "name": "",
          "type": "address"
        }
      ],
      "payable": false,
      "stateMutability": "view",
      "type": "function"
    },
    {
      "constant": true,
      "inputs": [],
      "name": "spentFees",
      "outputs": [
        {
          "name": "",
          "type": "uint256"
        }
      ],
      "payable": false,
      "stateMutability": "view",
      "type": "function"
    },
    {
      "constant": true,
      "inputs": [],
      "name": "alice",
      "outputs": [
        {
          "name": "",
          "type": "address"
        }
      ],
      "payable": false,
      "stateMutability": "view",
      "type": "function"
    },
    {
      "inputs": [
        {
          "name": "_myLighthouse",
          "type": "address"
        }
      ],
      "payable": false,
      "stateMutability": "nonpayable",
      "type": "constructor"
    },
    {
      "constant": false,
      "inputs": [
        {
          "name": "minutesToBuy",
          "type": "uint256"
        }
      ],
      "name": "buyTime",
      "outputs": [],
      "payable": false,
      "stateMutability": "nonpayable",
      "type": "function"
    },
    {
      "constant": true,
      "inputs": [],
      "name": "inPaidTime",
      "outputs": [
        {
          "name": "",
          "type": "bool"
        }
      ],
      "payable": false,
      "stateMutability": "view",
      "type": "function"
    },
    {
      "constant": false,
      "inputs": [],
      "name": "withdrawFees",
      "outputs": [],
      "payable": false,
      "stateMutability": "nonpayable",
      "type": "function"
    }
  ],
  "bytecode": "0x608060405234801561001057600080fd5b506040516020806107ef8339810180604052602081101561003057600080fd5b8101908080519060200190929190505050806000806101000a81548173ffffffffffffffffffffffffffffffffffffffff021916908373ffffffffffffffffffffffffffffffffffffffff1602179055505061075e806100916000396000f3fe60806040526004361061008e576000357c0100000000000000000000000000000000000000000000000000000000900463ffffffff16806324a0f5231461009357806327e235e3146100f8578063476343ee1461015d578063524704ac1461017457806379d67951146101cb5780638497a053146101fa578063a424e33514610225578063fb47e3a214610260575b600080fd5b34801561009f57600080fd5b506100e2600480360360208110156100b657600080fd5b81019080803573ffffffffffffffffffffffffffffffffffffffff1690602001909291905050506102b7565b6040518082815260200191505060405180910390f35b34801561010457600080fd5b506101476004803603602081101561011b57600080fd5b81019080803573ffffffffffffffffffffffffffffffffffffffff1690602001909291905050506102cf565b6040518082815260200191505060405180910390f35b34801561016957600080fd5b506101726102e7565b005b34801561018057600080fd5b506101896103a8565b604051808273ffffffffffffffffffffffffffffffffffffffff1673ffffffffffffffffffffffffffffffffffffffff16815260200191505060405180910390f35b3480156101d757600080fd5b506101e06103cd565b604051808215151515815260200191505060405180910390f35b34801561020657600080fd5b5061020f610416565b6040518082815260200191505060405180910390f35b34801561023157600080fd5b5061025e6004803603602081101561024857600080fd5b810190808035906020019092919050505061041c565b005b34801561026c57600080fd5b5061027561071a565b604051808273ffffffffffffffffffffffffffffffffffffffff1673ffffffffffffffffffffffffffffffffffffffff16815260200191505060405180910390f35b60026020528060005260406000206000915090505481565b60016020528060005260406000206000915090505481565b3373ffffffffffffffffffffffffffffffffffffffff167331efd75bc0b5fbafc6015bd50590f4fdab6a3f2273ffffffffffffffffffffffffffffffffffffffff1614151561039e576040517f08c379a000000000000000000000000000000000000000000000000000000000815260040180806020018281038252600c8152602001807f556e617574686f7269736564000000000000000000000000000000000000000081525060200191505060405180910390fd5b6000600381905550565b6000809054906101000a900473ffffffffffffffffffffffffffffffffffffffff1681565b6000600260003373ffffffffffffffffffffffffffffffffffffffff1673ffffffffffffffffffffffffffffffffffffffff168152602001908152602001600020544210905090565b60035481565b60008114151515610495576040517f08c379a000000000000000000000000000000000000000000000000000000000815260040180806020018281038252600e8152602001807f6e6f7468696e6720746f2062757900000000000000000000000000000000000081525060200191505060405180910390fd5b6000806000809054906101000a900473ffffffffffffffffffffffffffffffffffffffff1673ffffffffffffffffffffffffffffffffffffffff1663420b81f66040518163ffffffff167c0100000000000000000000000000000000000000000000000000000000028152600401604080518083038186803b15801561051a57600080fd5b505afa15801561052e573d6000803e3d6000fd5b505050506040513d604081101561054457600080fd5b810190808051906020019092919080519060200190929190505050816fffffffffffffffffffffffffffffffff16915080925081935050506000838302905082848281151561058f57fe5b04141515610605576040517f08c379a00000000000000000000000000000000000000000000000000000000081526004018080602001828103825260088152602001807f4f766572666c6f7700000000000000000000000000000000000000000000000081525060200191505060405180910390fd5b600160003373ffffffffffffffffffffffffffffffffffffffff1673ffffffffffffffffffffffffffffffffffffffff16815260200190815260200160002054811015156106bb576040517f08c379a00000000000000000000000000000000000000000000000000000000081526004018080602001828103825260108152602001807f4e6f7420656e6f7567682066756e64730000000000000000000000000000000081525060200191505060405180910390fd5b603c84024201600260003373ffffffffffffffffffffffffffffffffffffffff1673ffffffffffffffffffffffffffffffffffffffff168152602001908152602001600020819055508060036000828254019250508190555050505050565b7331efd75bc0b5fbafc6015bd50590f4fdab6a3f228156fea165627a7a72305820ad1fc597c09795bb628f2778c04a837f3c8fb565e515fac4d6920f6775fc78930029",
  "source": "pragma solidity ^0.5.0;\r\n\r\nimport \"../contracts/Ilighthouse.sol\";\r\n\r\n//Example for having customers pay to view videos at 10 cents a minute\r\ncontract ExampleCode {\r\n\r\n    ILighthouse  public myLighthouse;                       //ILighthouse is a struct we import. Create an instance of it\r\n    mapping(address => uint) public balances;               //Records uses's money\r\n    mapping(address => uint) public expiry;                 //Records how long a user has paid to watch videos, specifically the time when\r\n                                                            //a user is unable to continue watching videos (time expires)\r\n    uint public spentFees;\r\n    address public constant alice =  0x31EFd75bc0b5fbafc6015Bd50590f4fDab6a3F22;\r\n\r\n    constructor(ILighthouse _myLighthouse) public {         //When deploying the migration, must pass constructor arguments\r\n                                                            //I need to pass an instance of ILighthouse to get data from when I deploy this\r\n        myLighthouse = _myLighthouse;\r\n    }\r\n\r\n    /*\r\n      This is my fallback function, only 1 allowed per contract, it cannot have a name or return value\r\n      This function is called if this smart contract is called and no fuctions match, or it is supplied\r\n      plain ether. In order for this contract to receive the ether, this function must be marked payable.\r\n\r\n      People will send ether to this contract and this function will be called, putting their ether into\r\n      their balances, then when the user wants to purchase time, buyTime will deduct from their balances.\r\n    */\r\n\r\n    // function() public payable {\r\n    //     balances[msg.sender] += msg.value;\r\n    // }\r\n\r\n    function buyTime(uint minutesToBuy) public {\r\n        require(minutesToBuy != 0, \"nothing to buy\");\r\n        uint tenCentsOfETH;\r\n        bool ok;\r\n        (tenCentsOfETH,ok) = myLighthouse.peekData();\r\n        uint fee = tenCentsOfETH * minutesToBuy;\r\n        require(fee / minutesToBuy == tenCentsOfETH,\"Overflow\");\r\n        require(fee < balances[msg.sender],\"Not enough funds\");\r\n        expiry[msg.sender] = now + minutesToBuy * 1 minutes;            //Where is the fee's deducted from the viewer's account?\r\n        spentFees += fee;\r\n    }\r\n\r\n// Checks if a customer (the smart contract that calls this) is within the paid time period\r\n    function inPaidTime() public view returns (bool) {\r\n        return now < expiry[msg.sender];\r\n    }\r\n\r\n// Allows Alice to get her payments\r\n    function withdrawFees() public {\r\n        require(alice == msg.sender, \"Unauthorised\");\r\n  //      alice.transfer(spentFees);\r\n        spentFees = 0;\r\n    }\r\n}\r\n\r\n\r\n/*------------------------------- Questions -----------------------------------------------*/\r\n/*\r\n    How do I know the address of the lighthouse I am using? I create a lighthouse instance and\r\n    later call .peekData() but do not specify an address\r\n        Perhaps the address is specified on deployment\r\n\r\n    Is \"now\" and \"minutes\" considered keywords?\r\n\r\n    Why must fallback functions be defined as external and not public?\r\n*/\r\n",
  "sourcePath": "/home/jacky/Dropbox/Rhombus/GoldShop/contracts/ExampleCode.sol",
  "compiler": {
    "name": "solc",
    "version": "0.5.0+commit.1d4f565a.Emscripten.clang"
  },
  "schemaVersion": "3.0.1",
  "updatedAt": "2019-01-22T00:24:54.210Z",
  "devdoc": {
    "methods": {}
  },
  "userdoc": {
    "methods": {}
  }
}