{
  "contractName": "GoldShop",
  "abi": [
    {
      "constant": true,
      "inputs": [],
      "name": "myLighthouse",
      "outputs": [
        {
          "name": "",
          "type": "address"
        }
      ],
      "payable": false,
      "stateMutability": "view",
      "type": "function",
      "signature": "0x524704ac"
    },
    {
      "inputs": [
        {
          "name": "_myLighthouse",
          "type": "address"
        }
      ],
      "payable": false,
      "stateMutability": "nonpayable",
      "type": "constructor",
      "signature": "constructor"
    },
    {
      "constant": false,
      "inputs": [],
      "name": "printPrice",
      "outputs": [
        {
          "name": "",
          "type": "uint256"
        }
      ],
      "payable": false,
      "stateMutability": "nonpayable",
      "type": "function",
      "signature": "0x5f2f1797"
    },
    {
      "constant": false,
      "inputs": [
        {
          "name": "troyOunces",
          "type": "uint256"
        },
        {
          "name": "dollars",
          "type": "uint256"
        }
      ],
      "name": "worthSelling",
      "outputs": [
        {
          "name": "",
          "type": "bool"
        }
      ],
      "payable": false,
      "stateMutability": "nonpayable",
      "type": "function",
      "signature": "0xf69782ec"
    }
  ],
  "bytecode": "0x608060405234801561001057600080fd5b5060405160208061034a8339810180604052602081101561003057600080fd5b8101908080519060200190929190505050806000806101000a81548173ffffffffffffffffffffffffffffffffffffffff021916908373ffffffffffffffffffffffffffffffffffffffff160217905550506102b9806100916000396000f3fe608060405260043610610057576000357c0100000000000000000000000000000000000000000000000000000000900463ffffffff168063524704ac1461005c5780635f2f1797146100b3578063f69782ec146100de575b600080fd5b34801561006857600080fd5b5061007161013b565b604051808273ffffffffffffffffffffffffffffffffffffffff1673ffffffffffffffffffffffffffffffffffffffff16815260200191505060405180910390f35b3480156100bf57600080fd5b506100c8610160565b6040518082815260200191505060405180910390f35b3480156100ea57600080fd5b506101216004803603604081101561010157600080fd5b810190808035906020019092919080359060200190929190505050610255565b604051808215151515815260200191505060405180910390f35b6000809054906101000a900473ffffffffffffffffffffffffffffffffffffffff1681565b6000806028905060008060009054906101000a900473ffffffffffffffffffffffffffffffffffffffff1673ffffffffffffffffffffffffffffffffffffffff1663420b81f66040518163ffffffff167c0100000000000000000000000000000000000000000000000000000000028152600401604080518083038186803b1580156101eb57600080fd5b505afa1580156101ff573d6000803e3d6000fd5b505050506040513d604081101561021557600080fd5b810190808051906020019092919080519060200190929190505050816fffffffffffffffffffffffffffffffff1691508092508193505050819250505090565b600080610260610160565b90506000848202905060008482101561027c5760019050610281565b600090505b8093505050509291505056fea165627a7a723058208a28be9215fb9d51ee32027601f3a7f22761d73aafc076e76b762207857b12180029",
  "source": "pragma solidity ^0.5.0;\r\n\r\nimport \"../contracts/Ilighthouse.sol\";\r\n\r\ncontract GoldShop {\r\n\r\n    ILighthouse  public myLighthouse;                       //ILighthouse is a struct we import. Create an instance of it\r\n\r\n    //Since solidity 0.5.0 the address must be marked payable to send it ether via address.transfer()\r\n\r\n    constructor(ILighthouse _myLighthouse) public {\r\n        myLighthouse = _myLighthouse;\r\n    }\r\n\r\n    function printPrice() public returns (uint) {\r\n\r\n      uint troyOunceOfGold = 40;     //One troy ounce of gold costs 40 USD\r\n      bool ok;\r\n  //    uint zero = 1;\r\n      (troyOunceOfGold,ok) = myLighthouse.peekData();    //Revert Error occurs here (Because there is no lighthouse deployed locally -- doesnt return)\r\n  //    log0(bytes32(troyOunceoOfGold));\r\n      return troyOunceOfGold;\r\n    //    return zero;\r\n    }\r\n\r\n    function worthSelling(uint troyOunces, uint dollars) public returns (bool){   //Is a piece of jewlery worth selling second hand? If not, better to melt and sell raw gold\r\n      uint oneOz = printPrice();\r\n      uint goldVal = oneOz * troyOunces;\r\n\r\n      bool isWorth;\r\n\r\n      if(goldVal < dollars){            //raw gold worth less than second hand purchase offer, worth it to sell\r\n        isWorth = true;\r\n      }\r\n      else{\r\n        isWorth = false;\r\n      }\r\n      return isWorth;\r\n    }\r\n\r\n\r\n}\r\n\r\n//Create a gold shop which sells gold coins using the price of gold from a lighthouse. Updates the display cost with new prices\r\n\r\n/* ------------------------------Revised Scenario-----------------------------------\r\nPeople who want to get rid of old gold jewlery can either sell it second hand or melt it and sell the gold. But it can be hard to know which is\r\nmore profitable. That's where my service comes in. Customers call my smart contract with two parameters, troyOunces and dollars, describing\r\nhow much gold is in a piece of jewlery and the best offer customers have so far for selling it second hand. My contract will get the current\r\nexchange rate of gold, and calculate whether or not it is worth it to sell the jewlery second hand.\r\n\r\n*/\r\n",
  "sourcePath": "/home/jacky/Dropbox/Rhombus/GoldShop/contracts/GoldShop.sol",
  "compiler": {
    "name": "solc",
    "version": "0.5.0+commit.1d4f565a.Emscripten.clang"
  },
  "schemaVersion": "3.0.1",
  "updatedAt": "2019-01-22T00:24:55.173Z",
  "devdoc": {
    "methods": {}
  },
  "userdoc": {
    "methods": {}
  }
}