{
  "contractName": "Lighthouse",
  "abi": [
    {
      "constant": true,
      "inputs": [],
      "name": "auth",
      "outputs": [
        {
          "name": "",
          "type": "address"
        }
      ],
      "payable": false,
      "stateMutability": "view",
      "type": "function",
      "signature": "0xde9375f2"
    },
    {
      "constant": false,
      "inputs": [
        {
          "name": "newAuth",
          "type": "address"
        }
      ],
      "name": "changeAuth",
      "outputs": [],
      "payable": false,
      "stateMutability": "nonpayable",
      "type": "function",
      "signature": "0x22969eac"
    },
    {
      "constant": false,
      "inputs": [
        {
          "name": "newSeeker",
          "type": "address"
        }
      ],
      "name": "changeSearcher",
      "outputs": [],
      "payable": false,
      "stateMutability": "nonpayable",
      "type": "function",
      "signature": "0xd6e848ac"
    },
    {
      "constant": false,
      "inputs": [
        {
          "name": "newMaxAge",
          "type": "uint256"
        }
      ],
      "name": "setMaxAge",
      "outputs": [],
      "payable": false,
      "stateMutability": "nonpayable",
      "type": "function",
      "signature": "0x5ae28fc9"
    },
    {
      "constant": true,
      "inputs": [],
      "name": "notTooLongSinceUpdated",
      "outputs": [
        {
          "name": "",
          "type": "bool"
        }
      ],
      "payable": false,
      "stateMutability": "view",
      "type": "function",
      "signature": "0xe2f90632"
    },
    {
      "constant": true,
      "inputs": [],
      "name": "peekData",
      "outputs": [
        {
          "name": "v",
          "type": "uint128"
        },
        {
          "name": "b",
          "type": "bool"
        }
      ],
      "payable": false,
      "stateMutability": "view",
      "type": "function",
      "signature": "0x420b81f6"
    },
    {
      "constant": true,
      "inputs": [],
      "name": "peekUpdated",
      "outputs": [
        {
          "name": "v",
          "type": "uint32"
        },
        {
          "name": "b",
          "type": "bool"
        }
      ],
      "payable": false,
      "stateMutability": "view",
      "type": "function",
      "signature": "0xbdf384a8"
    },
    {
      "constant": true,
      "inputs": [],
      "name": "peekLastNonce",
      "outputs": [
        {
          "name": "v",
          "type": "uint32"
        },
        {
          "name": "b",
          "type": "bool"
        }
      ],
      "payable": false,
      "stateMutability": "view",
      "type": "function",
      "signature": "0xbecfbf69"
    },
    {
      "constant": true,
      "inputs": [],
      "name": "peek",
      "outputs": [
        {
          "name": "v",
          "type": "bytes32"
        },
        {
          "name": "ok",
          "type": "bool"
        }
      ],
      "payable": false,
      "stateMutability": "view",
      "type": "function",
      "signature": "0x59e02dd7"
    },
    {
      "constant": true,
      "inputs": [],
      "name": "read",
      "outputs": [
        {
          "name": "x",
          "type": "bytes32"
        }
      ],
      "payable": false,
      "stateMutability": "view",
      "type": "function",
      "signature": "0x57de26a4"
    },
    {
      "constant": false,
      "inputs": [
        {
          "name": "DataValue",
          "type": "uint256"
        },
        {
          "name": "nonce",
          "type": "uint256"
        }
      ],
      "name": "write",
      "outputs": [],
      "payable": false,
      "stateMutability": "nonpayable",
      "type": "function",
      "signature": "0x9c0e3f7a"
    }
  ],
  "bytecode": "0x6080604052336000806101000a81548173ffffffffffffffffffffffffffffffffffffffff021916908373ffffffffffffffffffffffffffffffffffffffff16021790555034801561005057600080fd5b50610ca9806100606000396000f3fe6080604052600436106100af576000357c0100000000000000000000000000000000000000000000000000000000900463ffffffff16806322969eac146100b4578063420b81f61461010557806357de26a41461015f57806359e02dd71461018a5780635ae28fc9146101c05780639c0e3f7a146101fb578063bdf384a814610240578063becfbf6914610282578063d6e848ac146102c4578063de9375f214610315578063e2f906321461036c575b600080fd5b3480156100c057600080fd5b50610103600480360360208110156100d757600080fd5b81019080803573ffffffffffffffffffffffffffffffffffffffff16906020019092919050505061039b565b005b34801561011157600080fd5b5061011a6104a2565b60405180836fffffffffffffffffffffffffffffffff166fffffffffffffffffffffffffffffffff168152602001821515151581526020019250505060405180910390f35b34801561016b57600080fd5b506101746104cd565b6040518082815260200191505060405180910390f35b34801561019657600080fd5b5061019f610577565b60405180838152602001821515151581526020019250505060405180910390f35b3480156101cc57600080fd5b506101f9600480360360208110156101e357600080fd5b81019080803590602001909291905050506105b7565b005b34801561020757600080fd5b5061023e6004803603604081101561021e57600080fd5b810190808035906020019092919080359060200190929190505050610685565b005b34801561024c57600080fd5b50610255610965565b604051808363ffffffff1663ffffffff168152602001821515151581526020019250505060405180910390f35b34801561028e57600080fd5b506102976109a2565b604051808363ffffffff1663ffffffff168152602001821515151581526020019250505060405180910390f35b3480156102d057600080fd5b50610313600480360360208110156102e757600080fd5b81019080803573ffffffffffffffffffffffffffffffffffffffff1690602001909291905050506109df565b005b34801561032157600080fd5b5061032a610c20565b604051808273ffffffffffffffffffffffffffffffffffffffff1673ffffffffffffffffffffffffffffffffffffffff16815260200191505060405180910390f35b34801561037857600080fd5b50610381610c45565b604051808215151515815260200191505060405180910390f35b3373ffffffffffffffffffffffffffffffffffffffff166000809054906101000a900473ffffffffffffffffffffffffffffffffffffffff1673ffffffffffffffffffffffffffffffffffffffff1614151561045f576040517f08c379a00000000000000000000000000000000000000000000000000000000081526004018080602001828103825260138152602001807f556e617574686f7269736564206163636573730000000000000000000000000081525060200191505060405180910390fd5b806000806101000a81548173ffffffffffffffffffffffffffffffffffffffff021916908373ffffffffffffffffffffffffffffffffffffffff16021790555050565b60008060025491506104b2610c45565b80156104c15750600060025414155b90508181915091509091565b60006104d7610c45565b80156104e65750600060025414155b151561055a576040517f08c379a00000000000000000000000000000000000000000000000000000000081526004018080602001828103825260138152602001807f496e76616c696420646174612073746f7265640000000000000000000000000081525060200191505060405180910390fd5b6fffffffffffffffffffffffffffffffff60025416600102905090565b6000806fffffffffffffffffffffffffffffffff60025416600102915061059c610c45565b80156105ab5750600060025414155b90508181915091509091565b3373ffffffffffffffffffffffffffffffffffffffff166000809054906101000a900473ffffffffffffffffffffffffffffffffffffffff1673ffffffffffffffffffffffffffffffffffffffff1614151561067b576040517f08c379a00000000000000000000000000000000000000000000000000000000081526004018080602001828103825260138152602001807f556e617574686f7269736564206163636573730000000000000000000000000081525060200191505060405180910390fd5b8060038190555050565b3373ffffffffffffffffffffffffffffffffffffffff166000809054906101000a900473ffffffffffffffffffffffffffffffffffffffff1673ffffffffffffffffffffffffffffffffffffffff16141515610749576040517f08c379a00000000000000000000000000000000000000000000000000000000081526004018080602001828103825260138152602001807f556e617574686f7269736564206163636573730000000000000000000000000081525060200191505060405180910390fd5b6000608083908060020a82049150501415156107cd576040517f08c379a000000000000000000000000000000000000000000000000000000000815260040180806020018281038252600f8152602001807f56616c756520746f6f206c61726765000000000000000000000000000000000081525060200191505060405180910390fd5b6000602082908060020a8204915050141515610851576040517f08c379a000000000000000000000000000000000000000000000000000000000815260040180806020018281038252600f8152602001807f4e6f6e636520746f6f206c61726765000000000000000000000000000000000081525060200191505060405180910390fd5b6080429060020a0260c0829060020a02830101600281905550600073ffffffffffffffffffffffffffffffffffffffff16600160009054906101000a900473ffffffffffffffffffffffffffffffffffffffff1673ffffffffffffffffffffffffffffffffffffffff1614151561096157600160009054906101000a900473ffffffffffffffffffffffffffffffffffffffff1673ffffffffffffffffffffffffffffffffffffffff1663181783586040518163ffffffff167c0100000000000000000000000000000000000000000000000000000000028152600401600060405180830381600087803b15801561094857600080fd5b505af115801561095c573d6000803e3d6000fd5b505050505b5050565b60008060006080600254908060020a82049150509050809250610986610c45565b80156109955750600060025414155b9150828292509250509091565b600080600060c0600254908060020a820491505090508092506109c3610c45565b80156109d25750600060025414155b9150828292509250509091565b3373ffffffffffffffffffffffffffffffffffffffff166000809054906101000a900473ffffffffffffffffffffffffffffffffffffffff1673ffffffffffffffffffffffffffffffffffffffff16141515610aa3576040517f08c379a00000000000000000000000000000000000000000000000000000000081526004018080602001828103825260138152602001807f556e617574686f7269736564206163636573730000000000000000000000000081525060200191505060405180910390fd5b80600160006101000a81548173ffffffffffffffffffffffffffffffffffffffff021916908373ffffffffffffffffffffffffffffffffffffffff160217905550630da4b055600160009054906101000a900473ffffffffffffffffffffffffffffffffffffffff1673ffffffffffffffffffffffffffffffffffffffff1663eeb728666040518163ffffffff167c010000000000000000000000000000000000000000000000000000000002815260040160206040518083038186803b158015610b6d57600080fd5b505afa158015610b81573d6000803e3d6000fd5b505050506040513d6020811015610b9757600080fd5b8101908080519060200190929190505050141515610c1d576040517f08c379a00000000000000000000000000000000000000000000000000000000081526004018080602001828103825260108152602001807f696e76616c69642073656172636865720000000000000000000000000000000081525060200191505060405180910390fd5b50565b6000809054906101000a900473ffffffffffffffffffffffffffffffffffffffff1681565b60008067ffffffffffffffff6080600254908060020a82049150501642039050600354811080610c7757506000600354145b9150509056fea165627a7a7230582095205464fd436fb2be88490fc815968f6adb466b7ed653ac509c3fc0c67b0d330029",
  "source": "pragma solidity ^0.5.0;   //0.4.24\r\n\r\n// Searcher is an interface for contracts that want to be notified of incoming data\r\n//\r\ncontract Searcher {\r\n\r\n    // poke is called when new data arrives\r\n    //\r\n    function poke() public;\r\n\r\n    // this is called to ensure that only valid Searchers can be added to the Lighthouse - returns an arbitrarily chosen number\r\n    //\r\n    function identify() external pure returns(uint) {\r\n        return 0xda4b055;\r\n    }\r\n}\r\n\r\n// for operation of this contract see the readme file.\r\n//\r\ncontract Lighthouse {\r\n\r\n    address public auth = msg.sender; // ownable model. No real value in making it transferrable.\r\n\r\n    Searcher seeker;                  // a single contract that can be notified of data changes\r\n\r\n    uint value;                       // holds all the data bit fiddled into a single 32 byte word.\r\n\r\n    /*\r\n        The default uint is uint256 meaning 256 bits to work with (also the default EVM word size)\r\n        We store all our data in one uint256 variable called value, but the relevant data only takes\r\n        128 bits of the 256 total.\r\n\r\n        nonce               empty                 update              value-----------------------\r\n        bit255                                                                                  bit0\r\n    */\r\n\r\n    uint maxAge;                      // if non zero, sets a limit to data validity\r\n\r\n    // admin functions\r\n\r\n    //How does Auth work, why is this relevant/needed\r\n    modifier onlyAuth {\r\n        require(auth == msg.sender, \"Unauthorised access\");\r\n        _;      //What is this?\r\n    }\r\n\r\n    function changeAuth(address newAuth) public onlyAuth {\r\n        auth = newAuth;\r\n    }\r\n\r\n    //I assume seekers are the actual oracles which obtain data\r\n    //Sets a seeker to poke when data is updated\r\n    function changeSearcher(Searcher newSeeker) public onlyAuth {\r\n        seeker = newSeeker;\r\n        require(seeker.identify() == 0xda4b055,\"invalid searcher\");\r\n    }\r\n\r\n    function setMaxAge(uint newMaxAge) public onlyAuth {\r\n        maxAge = newMaxAge;\r\n    }\r\n\r\n    /*\r\n        Returns whether or not a data is valid or past the max age\r\n\r\n        Bitshift off the last 128 bits of value, which hold the actual data. Bitwise to remove the Nonce\r\n        and only look at last 32 bits\r\n            Wouldn't we only need 8 hexadecimal characters and not 16?\r\n            Unless the empty data of 32 bits is included as part of age\r\n        Is Since a keyword that obtains the date right now?\r\n    */\r\n    function notTooLongSinceUpdated() public view returns (bool) {\r\n        uint since = now - ((value >> 128) &\r\n        0x000000000000000000000000000000000000000000000000ffffffffffffffff);\r\n        return (since < maxAge) || (maxAge == 0);\r\n    }\r\n\r\n    /*\r\n      Obtain the last 128 bits of value as the data.\r\n\r\n      If peekData() returns uint128 why do we call it with uint256, and why does this work\r\n\r\n      Note: Cannot have an empty return!\r\n    */\r\n    function peekData() external view returns (uint128 v,bool b) {\r\n        v = uint128(value);\r\n        b = notTooLongSinceUpdated() && value != 0;\r\n        return (v, b);\r\n    }\r\n\r\n    function peekUpdated()  external view returns (uint32 v,bool b) {\r\n        uint v2 = value >> 128;\r\n        v = uint32(v2);\r\n        b = notTooLongSinceUpdated() && value != 0;\r\n        return (v, b);\r\n    }\r\n\r\n    function peekLastNonce() external view returns (uint32 v,bool b) {\r\n        uint v2 = value >> 192;\r\n        v = uint32(v2);\r\n        b = notTooLongSinceUpdated() && value != 0;\r\n        return (v, b);\r\n    }\r\n\r\n    function peek() external view returns (bytes32 v ,bool ok) {\r\n        v = bytes32(value & 0x00000000000000000000000000000000ffffffffffffffffffffffffffffffff);\r\n        ok = notTooLongSinceUpdated() && value != 0;\r\n        return (v, ok);\r\n    }\r\n\r\n    function read() external view returns (bytes32 x) {\r\n        require(notTooLongSinceUpdated() && value != 0, \"Invalid data stored\");\r\n        return bytes32(value & 0x00000000000000000000000000000000ffffffffffffffffffffffffffffffff);\r\n    }\r\n\r\n    function write(uint  DataValue, uint nonce) external onlyAuth {\r\n        require ((DataValue >> 128) == 0, \"Value too large\");\r\n        require ((nonce >> 32) == 0, \"Nonce too large\");\r\n        value = DataValue + (nonce << 192) + (now << 128) ;\r\n        if (address(seeker) != address(0)) {\r\n            seeker.poke();\r\n        }\r\n    }\r\n}\r\n\r\n/*                                      Questions\r\n\r\n1) What is the setup regarding Lighthouse and ILighthouse (And passing an address instead of Ilighthouse object)\r\n    It is an interface to work with, an abstract definition of what functions you should be able to call. Hides our Lighthouse\r\n    implementation from users\r\n\r\n    In migrations/constructor, I pass an address which is interpreted (typecast) into a lighthouse interface. This interface\r\n    promises that you can call some functions with some returns at this address. It so happens that we have a lighthouse deployed\r\n    at that address, so everything works. Otherwise we would get a bunch of errors.\r\n    \r\n2) How do I deploy a lighthouse and know what address it is at\r\n3) How do I write data into a Lighthouse\r\n4) Would I have to deploy lighthouse first, get it's contract address, then use the address to deploy my\r\n  actual contract?\r\n\r\n  truffle migrate, truffle migrate -f 3\r\n\r\n  Does this not matter for truffle test, as it deploys a seperate instance of my contracts then runs the tests on that instance?\r\n    No, it should matter. My test's only import GoldShop and not lighthouse.\r\n    So How does truffle test work? It does not have an lighthouse address to create GoldShop with (unlike 3_deploy_migrations)\r\n\r\n\r\nSince there is only a \"value\" variable, does the lighthouse not keep track of past data points?\r\n    No\r\nWhat is the point of a Nonce\r\n    So a user can send out 3 requests with nonces, and have them returned in the same order. (Blocks are mined at different speeds)\r\n\r\n*/\r\n",
  "sourcePath": "/home/jacky/Dropbox/Rhombus/GoldShop/contracts/Lighthouse.sol",
  "compiler": {
    "name": "solc",
    "version": "0.5.0+commit.1d4f565a.Emscripten.clang"
  },
  "schemaVersion": "3.0.1",
  "updatedAt": "2019-01-22T00:24:55.183Z",
  "devdoc": {
    "methods": {}
  },
  "userdoc": {
    "methods": {}
  }
}