{
  "contractName": "Writer",
  "abi": [
    {
      "constant": false,
      "inputs": [],
      "name": "writeVal",
      "outputs": [],
      "payable": false,
      "stateMutability": "nonpayable",
      "type": "function",
      "signature": "0x1b127668"
    }
  ],
  "bytecode": "0x608060405234801561001057600080fd5b5061014a806100206000396000f3fe608060405260043610610041576000357c0100000000000000000000000000000000000000000000000000000000900463ffffffff1680631b12766814610046575b600080fd5b34801561005257600080fd5b5061005b61005d565b005b60006032905060006104d290506000809054906101000a900473ffffffffffffffffffffffffffffffffffffffff1673ffffffffffffffffffffffffffffffffffffffff16639c0e3f7a83836040518363ffffffff167c01000000000000000000000000000000000000000000000000000000000281526004018083815260200182815260200192505050600060405180830381600087803b15801561010257600080fd5b505af1158015610116573d6000803e3d6000fd5b50505050505056fea165627a7a723058204f2db22a4d2115e37f11988b6ea12484620e0dfe015959126b53ea4617dcda190029",
  "source": "pragma solidity ^0.5.0;\r\n\r\nimport \"../contracts/Lighthouse.sol\";\r\n\r\ncontract Writer {\r\n\r\n    Lighthouse myLighthouse;\r\n\r\n//pass lighthouse address, value\r\n    function writeVal() public{\r\n      uint dataValue = 50;\r\n      uint nonce = 1234;\r\n\r\n      myLighthouse.write(dataValue, nonce);\r\n    }\r\n}\r\n\r\n/*\r\n  1) How do I get an account to call a function? I want my deploying account on ganache to call lighthouse.changeauth(writer)\r\n  upon deploying the Writer\r\n\r\n  2) Should the writer interface with ILighthouse? If so, we will need to expose the write() function in the interface\r\n\r\n  3) For a user to do local testing, I assume they will\r\n      Deploy a Lighthouse\r\n      Deploy an oracle, pass it lighthouse address, so it can send data to Lighthouse (writer)\r\n      Authorize the oracle by changing auth from deploying account to oracle (need oracle deployed address)\r\n      Deploy their smart contract, pass it lighthouse address, so it can get information from lighthouse and do stuff\r\n\r\n      I will put all of these commands into a script that executes when a user types \"truffle setupLighthouse\"\r\n      Thus to do local testing, users will write their code, type truffle migrate, truffle setupLighthouse, truffle test\r\n\r\n\r\n*/\r\n",
  "sourcePath": "/home/jacky/Dropbox/Rhombus/GoldShop/contracts/Writer.sol",
  "compiler": {
    "name": "solc",
    "version": "0.5.0+commit.1d4f565a.Emscripten.clang"
  },
  "schemaVersion": "3.0.1",
  "updatedAt": "2019-01-22T00:24:55.173Z",
  "devdoc": {
    "methods": {}
  },
  "userdoc": {
    "methods": {}
  }
}